:020000040800F2
:1000000000800120410D0008C90C0008CF0C000839
:10001000D50C0008DB0C0008E10C00080000000013
:10002000000000000000000000000000E70C0008D5
:10003000F50C000800000000030D0008110D000879
:10004000910D0008910D0008910D0008910D000818
:10005000910D0008910D0008910D0008910D000808
:10006000910D0008910D0008910D0008910D0008F8
:10007000910D0008910D0008910D0008910D0008E8
:10008000910D0008910D0008910D0008910D0008D8
:10009000910D0008910D0008910D0008910D0008C8
:1000A000910D0008910D0008910D0008910D0008B8
:1000B000910D0008910D0008910D0008910D0008A8
:1000C000910D0008910D0008910D0008910D000898
:1000D000910D0008910D0008910D0008910D000888
:1000E000910D0008910D0008910D0008910D000878
:1000F000910D0008910D0008910D0008910D000868
:10010000910D0008910D0008910D0008910D000857
:10011000910D0008910D0008910D0008910D000847
:10012000910D0008910D0008910D0008910D000837
:10013000910D0008910D0008910D0008910D000827
:10014000910D0008910D0008910D0008910D000817
:10015000910D0008910D0008910D0008910D000807
:10016000910D0008910D0008910D0008910D0008F7
:10017000910D0008910D0008910D0008000000008D
:08018000910D0008910D00082B
:1001880010B5054C237833B9044B13B10448AFF3C9
:1001980000800123237010BD0C0000200000000027
:1001A800A845000808B5034B1BB103490348AFF342
:1001B800008008BD0000000010000020A8450008CD
:1001C80080B500AF04F028F900F014F800F00EF93B
:1001D80000F0CEF800F054F8054801F0E1F90346C4
:1001E800002B00D0FEE700F065FC0023184680BD18
:1001F8002800002080B596B000AF07F11403442210
:100208000021184604F0A0F93B4600221A605A6003
:100218009A60DA601A614FF4007002F0A7FA034698
:10022800002B01D000F0DCF910237B610123FB6275
:1002380000233B6360237B630023FB6307F1140304
:10024800184602F0A5FF0346002B01D000F0C8F9BC
:100258000F233B6000237B600023BB600023FB600F
:1002680000233B613B460021184603F06DFB034623
:10027800002B01D000F0B4F900BF5837BD4680BD4F
:1002880080B58AB000AF07F11C0300221A605A60DB
:100298009A603B1D00221A605A609A60DA601A61FF
:1002A8005A61304B304A1A602E4B4FF480125A6014
:1002B8002C4B00229A602B4B0022DA60294B00223B
:1002C8001A61284B04225A61264B00221A76254BC4
:1002D80001225A76234B0122DA61224B002283F84D
:1002E8002020204B00229A621E4B0022DA621D4B0E
:1002F800002283F830201B4B4FF480525A63194B6D
:10030800002283F83820174800F0FAFF0346002B34
:1003180001D000F065F90023FB6107F11C031946C1
:10032800104800F059FD0346002B01D000F058F9A1
:100338000E4B7B600623BB600523FB607F233B617C
:1003480004237B610023BB613B1D1946054801F06E
:10035800C7FA0346002B01D000F042F900BF283746
:10036800BD4680BD28000020000004500002B025D2
:1003780080B500AF1B4B1C4A1A601A4B4FF48272AF
:100388005A60184B4FF400429A60164B4FF4E062E3
:10039800DA60144B00221A61124B00225A61114B89
:1003A8004FF400729A610F4B0022DA610D4B002264
:1003B8001A620C4B00225A620A4B00229A62094BBD
:1003C8000722DA62074B00221A63064B08225A6397
:1003D800044803F0A5FC0346002B01D000F000F907
:1003E80000BF80BD8C0000200038004080B58AB076
:1003F80000AF07F1140300221A605A609A60DA60AD
:100408001A61364BDB6C354A43F08003D364334BB7
:10041800DB6C03F080033B613B69304BDB6C2F4A9C
:1004280043F00403D3642D4BDB6C03F00403FB603F
:10043800FB682A4BDB6C294A43F00103D364274B42
:10044800DB6C03F00103BB60BB68244BDB6C234A05
:1004580043F00203D364214BDB6C03F002037B609F
:100468007B6800224FF400611D4802F059F901230E
:100478007B610023BB610023FB6107F1140319466C
:10048800184801F08BFF02237B610023BB61002326
:10049800FB6107F114031946134801F07FFF01239C
:1004A8007B610023BB610023FB6107F1140319463C
:1004B8000B4801F073FF4FF400637B610123BB61BC
:1004C8000023FB6100233B6207F11403194604482B
:1004D80001F064FF00BF2837BD4680BD0010024010
:1004E80000040048001C00480008004880B500AF20
:1004F8000121054802F0FCF80346012B0CBF01233B
:100508000023DBB2184680BD0004004880B500AF68
:100518000221054802F0ECF80346012B0CBF012329
:100528000023DBB2184680BD0008004880B500AF44
:100538000121054802F0DCF80346012B0CBF01231A
:100548000023DBB2184680BD001C004880B584B08B
:1005580000AF7860396000224FF40061174802F05C
:10056800DFF87B681B09DBB23B737B68DBB21B01DE
:10057800DAB23B681B0ADBB21343DBB27B733B681E
:10058800DBB2BB7307F10C014FF4967303220C48DE
:1005980003F069FC01224FF40061084802F0C0F83A
:1005A800012003F0ADFF00224FF40061034802F080
:1005B800B7F800BF1037BD4680BD00BF0004004833
:1005C8008C00002080B500AF6421044801F0A2F837
:1005D800024801F077F90346184680BD280000203C
:1005E80080B400AF72B600BFFEE780B584B000AF3C
:1005F80078607B68183330220021184603F0A4FF86
:100608007B6801225A607B6801229A607B6801221C
:100618001A607B680122DA607B6801229A620021F5
:10062800786800F075F80023FB73FFF77FFF034637
:10063800FB73FB7B83F00103DBB2002BF5D1FFF7E3
:1006480075FF0346FB73FB7B002BF8D1786800F03D
:1006580009F80121786800F05BF800BF1037BD4643
:1006680080BD000080B586B000AF786003F03CFF25
:10067800B860B968254BA3FB0123DA0813465B0071
:1006880013449B00CA1A02F003037B61B9681F4B2D
:10069800A3FB0123DA0813465B0013449B00CA1A24
:1006A80093083B610023FB6018E0FB680133FB60A3
:1006B8007B69013303F003037B617B69002B0AD15B
:1006C8003B695A1C114BA3FB021359080B465B00EC
:1006D8000B44D31A3B61FB680C2B12D879687A69F2
:1006E80013465B0013443A691344063351F8233028
:1006F800002BDAD17B687A691A617B683A695A619A
:1007080000E000BF1837BD4680BD00BFABAAAAAA4B
:1007180080B586B000AF78600B46FB7000237B6124
:1007280000233B61FB78002B0CD07B681A697B683F
:100738005B699B001344012202FA03F31A467B69A2
:1007480013437B610023FB6022E00023BB6019E0B8
:100758007968FA6813465B001344BA681344063391
:1007680051F82330002B0AD0BB689A00FB68134469
:10077800012202FA03F31A463B6913433B61BB6843
:100788000133BB60BB68022BE2D9FB680133FB6015
:10079800FB68032BD9D939697869FFF7D7FE00BF01
:1007A8001837BD4680BD80B588B000AF7860396025
:1007B800FFF708FF78617A6913469B001344DA0053
:1007C800D31A1B0B0F333B617B6800221A703B68FE
:1007D80000221A70FFF78AFE0346FB77FFF796FEA2
:1007E8000346BB770023BB6129E0FFF77FFE034682
:1007F800FB73FFF78BFE0346BB73FB7B002B08D014
:10080800FB7F83F00103DBB2002B02D07B6801225F
:100818001A70BB7B002B08D0BB7F83F00103DBB2CF
:10082800002B02D03B6801221A70BB7BBB77FB7B95
:10083800FB770A2003F064FEBB690133BB61BA6928
:100848003B699A42D1D37B681B78002B09D03B685F
:100858001B78002B05D07B6800221A703B680022A9
:100868001A7000BF2037BD4680BD80B500AF00219B
:100878004FF47060FFF76AFEC82003F041FE0021C4
:100888004FF47F60FFF762FEC82003F039FE0021B5
:1008980040F6FF70FFF75AFEC82003F031FE002132
:1008A80040F66910FFF752FE4FF47A7003F028FE05
:1008B80000BF80BD80B588B000AF786007F10A023C
:1008C80007F10B0311461846FFF76DFFFB7A002B63
:1008D8000BD07B681B68002B03D07B681B68013B2F
:1008E80000E003237A6813600DE0BB7A002B0AD07E
:1008F8007B681B68032B03D07B681B68013300E00F
:1009080000237A6813607B681B68032B58D801A200
:1009180052F823F02D090008A90900085909000810
:10092800810900087B689B68022B01D10023BBE08A
:100938007B685B68FB617B689B685A1C5C4BA3FB0C
:10094800021359080B465B000B44D31ABB6138E00D
:100958007B689B68002B01D10023A5E07B685B685E
:10096800FB617B689B68002B03D07B689B68013B1D
:1009780000E00223BB6124E07B685B68002B01D1A7
:10098800002391E07B685B68002B03D07B685B6881
:10099800013B00E00323FB617B689B68BB6110E0BF
:1009A8007B685B68032B01D100237DE07B685B6873
:1009B800013303F00303FB617B689B68BB6100E0C4
:1009C800FEE77968FA6913465B001344BA69134471
:1009D800063351F82330002B01D0002364E00023B4
:1009E8007B617B681B69FA699A420BD17B685B69FA
:1009F800BA699A4206D17B68DB685A1C7B68DA6060
:100A080001237B617B69002B35D100233B612FE0FB
:100A18000023FB6026E079683A6913465B001344BB
:100A2800FA681344063351F8231078683A69134674
:100A38005B001344FA681344063350F82330002B44
:100A480014BF01230023DBB2C81A79683A69134638
:100A58005B001344FA681344063341F82300FB682B
:100A68000133FB60FB68022BD5D93B6901333B613D
:100A78003B69032BCCD97B68D8687968FA69134637
:100A88005B001344BA691344063341F823007B68BA
:100A9800FA695A607B68BA699A607B69002B02D050
:100AA8007868FFF7DFFD012318462037BD4680BD73
:100AB800ABAAAAAA80B592B000AF3B461846FFF78A
:100AC80094FD04E03B4601211846FFF721FE3B4612
:100AD8001846FFF7EFFE0346002BF3D1FFF7C5FEDC
:100AE800EBE7000080B483B000AF0F4B1B6E0E4ADB
:100AF80043F0010313660C4B1B6E03F001037B608C
:100B08007B68094B9B6D084A43F080539365064BFD
:100B18009B6D03F080533B603B6800BF0C37BD46BC
:100B28005DF8047B704700BF0010024080B5ACB090
:100B380000AF786007F19C0300221A605A609A603F
:100B4800DA601A6107F1140388220021184603F0BD
:100B5800FBFC7B681B68274A934247D14FF48043CC
:100B68007B614FF08053C7F88C300123BB610123B0
:100B7800FB6110233B6207237B620223BB620223D3
:100B8800FB624FF080733B6307F11403184601F0D2
:100B980043FE0346002B01D0FFF722FD164BDB6C0A
:100BA800154A43F40053D364134BDB6C03F400532E
:100BB8003B613B69104BDB6C0F4A43F00103D36484
:100BC8000D4BDB6C03F00103FB60FB681023C7F8D7
:100BD8009C300B23C7F8A0300023C7F8A43007F1D6
:100BE8009C0319464FF0904001F0D8FB00BFB03786
:100BF800BD4680BD000004500010024080B58AB098
:100C080000AF786007F1140300221A605A609A60F6
:100C1800DA601A617B681B68254A934244D1254BE8
:100C28009B6D244A43F480439365224B9B6D03F4E8
:100C380080433B613B691F4BDB6C1E4A43F0040356
:100C4800D3641C4BDB6C03F00403FB60FB68194B9B
:100C5800DB6C184A43F00203D364164BDB6C03F0D9
:100C68000203BB60BB6808237B610223BB610023CE
:100C7800FB6103233B6205237B6207F114031946DA
:100C88000D4801F08BFB4FF400537B610223BB61DD
:100C98000023FB6103233B6205237B6207F11403F6
:100CA8001946064801F07AFB00BF2837BD4680BDCB
:100CB80000380040001002400008004800040048C6
:100CC80080B400AFFEE780B400AFFEE780B400AFA9
:100CD800FEE780B400AFFEE780B400AFFEE780B463
:100CE80000AF00BFBD465DF8047B704780B400AF1D
:100CF80000BFBD465DF8047B704780B400AF00BFFD
:100D0800BD465DF8047B704780B500AF03F0D8FBA3
:100D180000BF80BD80B400AF064BD3F88830054AC9
:100D280043F47003C2F8883000BFBD465DF8047B09
:100D3800704700BF00ED00E0DFF834D0FFF7EAFFAE
:100D48000C480D490D4A002302E0D458C45004331E
:100D5800C4188C42F9D30A4A0A4C002301E01360F4
:100D68000432A242FBD303F0F7FBFFF729FAFEE7B0
:100D780000800120000000200C0000200846000828
:100D88000C000020F4000020FEE780B483B000AF20
:100D980078607B689B6803F00103012B01D1012374
:100DA80000E0002318460C37BD465DF8047B704709
:100DB80080B483B000AF78607B689B6803F004035D
:100DC800042B01D1012300E0002318460C37BD464F
:100DD8005DF8047B7047000090B59FB000AF786065
:100DE8003960002387F877307B6893F85030012BFF
:100DF80001D1022393E07B68012283F8502000236D
:100E0800FB6500233B667B681B68474A934202D117
:100E1800464BBB6001E00023BB60BB68002B0BD1D5
:100E28007B685B6D43F020027B685A657B68002213
:100E380083F85020012372E0BB681846FFF7B8FF1B
:100E480038677B681B681846FFF7B2FF0346002B1C
:100E580054D13B6F002B51D1354BFB663B681B6867
:100E6800002B2CD0FB6E9B6823F460423B685968CA
:100E78007B6893F830305B030B431A43FB6E9A6030
:100E88002948FFF782FF04462848FFF77EFF0346FC
:100E98001C432848FFF779FF03462343002B37D12B
:100EA800FB6E9B6823F4716323F00F033A681168A3
:100EB8003A6892680A431A43FB6E9A6028E0FB6E10
:100EC8009B6823F46042FB6E9A601748FFF75DFF4A
:100ED80004461648FFF759FF03461C431548FFF719
:100EE80054FF03462343002B12D1FB6E9B6823F467
:100EF800716323F00F03FA6E936009E07B685B6D02
:100F080043F020027B685A65012387F8773000E0B8
:100F180000BF7B68002283F8502097F87730184686
:100F28007C37BD4690BD00BF00000450000104504E
:100F3800000304500002045080B483B000AF78600E
:100F480039607B689B6823F47C123B681A437B6892
:100F58009A6000BF0C37BD465DF8047B704780B4CB
:100F680083B000AF786039607B689B6823F0E072DB
:100F78003B681A437B689A6000BF0C37BD465DF832
:100F8800047B704780B483B000AF78607B689B684F
:100F980003F0E07318460C37BD465DF8047B7047D4
:100FA80080B487B000AFF860B9607A603B60FB68D6
:100FB80060331A46BB689B0013447B617B691A68DF
:100FC800084B13407A6802F0F8413A680A43134321
:100FD80043F000427B691A6000BF1C37BD465DF8CC
:100FE800047B704700F0FF0380B485B000AF7860E1
:100FF80039607B6860331A463B689B001344FB608A
:10100800FB681B6803F0F84318461437BD465DF8C3
:10101800047B704780B487B000AFF860B9607A602D
:10102800FB6860331A46BB689B0013447B617B698D
:101038001B6823F000427B681A437B691A6000BF73
:101048001C37BD465DF8047B704780B483B000AFA1
:1010580078607B68DB6803F44063002B01D10123CF
:1010680000E0002318460C37BD465DF8047B704746
:1010780080B487B000AFF860B9607A60FB6830333D
:101088001A46BB681B0A9B0003F00C0313447B61E0
:101098007B691A68BB6803F01F031F2101FA03F379
:1010A800DB431A407B689B0E03F01F01BB6803F00B
:1010B8001F0301FA03F31A437B691A6000BF1C3748
:1010C800BD465DF8047B704780B487B000AFF86018
:1010D800B9607A60FB6814331A46BB685B0E9B00E4
:1010E80003F0040313447B617B691A68BB681B0D1A
:1010F80003F01F03072101FA03F3DB431A40BB681F
:101108001B0D03F01F03796801FA03F31A437B6987
:101118001A6000BF1C37BD465DF8047B70470000AD
:1011280080B485B000AFF860B9607A60FB68D3F826
:10113800B020BB68C3F31203DB431A407B6803F09B
:1011480018030849D940BB680B40C3F312031A437C
:10115800FB68C3F8B02000BF1437BD465DF8047BB8
:10116800704700BFFFFF070080B483B000AF78600E
:101178007B689B6803F01F0318460C37BD465DF873
:10118800047B704780B483B000AF78607B689B684D
:1011980003F4604318460C37BD465DF8047B70477E
:1011A80080B483B000AF78607B689B6823F02043ED
:1011B80023F03F037A68936000BF0C37BD465DF8A3
:1011C800047B704780B483B000AF78607B689B680D
:1011D80003F00053B3F1005F01D1012300E00023C5
:1011E80018460C37BD465DF8047B704780B483B061
:1011F80000AF78607B689B6823F0104323F03F03BF
:1012080043F080527B689A6000BF0C37BD465DF89A
:10121800047B704780B483B000AF78607B689B68BC
:1012280003F08053B3F1805F01D1012300E0002374
:1012380018460C37BD465DF8047B704780B483B010
:1012480000AF78607B689B6823F0004323F03F037E
:1012580043F001027B689A6000BF0C37BD465DF819
:10126800047B704780B483B000AF78607B689B686C
:1012780003F00103012B01D1012300E000231846EC
:101288000C37BD465DF8047B704780B483B000AF6F
:1012980078607B689B6823F0004323F03F0343F0AA
:1012A80004027B689A6000BF0C37BD465DF8047B7A
:1012B800704780B483B000AF78607B689B6803F0A8
:1012C8000403042B01D1012300E0002318460C3746
:1012D800BD465DF8047B704780B483B000AF78608A
:1012E8007B689B6803F00803082B01D1012300E009
:1012F800002318460C37BD465DF8047B7047000094
:1013080090B589B000AF78600023FB770023FB60BD
:101318007B68002B01D1012330E17B681B69002B1E
:101328007B685B6D002B09D17868FFF7FFFB7B6852
:1013380000229A657B68002283F850207B681B682E
:101348001846FFF73FFF0346002B04D07B681B6855
:101358001846FFF725FF7B681B681846FFF75AFFFA
:101368000346002B15D17B681B681846FFF73EFF24
:10137800844B1B689B09844AA2FB03239B09013306
:101388005B00FB6002E0FB68013BFB60FB68002B35
:10139800F9D17B681B681846FFF73CFF0346002B12
:1013A8000DD17B685B6D43F010027B685A657B68E2
:1013B8009B6D43F001027B689A650123FB777B688C
:1013C8001B681846FFF775FF78617B685B6D03F053
:1013D8001003002B40F0C9807B69002B40F0C580CA
:1013E8007B685B6D23F4817343F002027B685A6566
:1013F8007B681B681846FFF735FF0346002B15D19D
:101408006248FFF72FFF04466148FFF72BFF0346AA
:101418001C436048FFF726FF03462343002B05D1F2
:101428007B685B6819465C48FFF786FD7B685B7ED6
:101438005A037B685B6B1A437B68DB681A437B68DB
:101448009B681A437B6893F820301B041343BB61E5
:101458007B6893F82030012B06D17B685B6A013BDF
:101468005B04BA691343BB617B689B6A002B09D094
:101478007B689B6A03F470727B68DB6A1343BA6902
:101488001343BB617B681B68DA68444B13407A6876
:101498001268B9690B43D3607B681B681846FFF76D
:1014A8001BFF38617B69002B3DD13B69002B3AD18A
:1014B8007B681B7E9A037B6893F830305B0013438C
:1014C800BB617B681B68DB6823F4804323F002035D
:1014D8007A681268B9690B43D3607B6893F838302F
:1014E800012B18D17B681B681B6923F4FF6323F069
:1014F80004037A68D16B7A68126C11437A68526C6B
:1015080011437A68926C0A431A437B681B6842F05D
:1015180001021A6107E07B681B681A697B681B680F
:1015280022F001021A617B681B69012B0CD17B68D0
:101538001B681B6B23F00F017B68DB695A1E7B68F5
:101548001B680A431A6307E07B681B681A6B7B6891
:101558001B6822F00F021A637B685B6D23F003039C
:1015680043F001027B685A6507E07B685B6D43F0D6
:1015780010027B685A650123FB77FB7F18462437E6
:10158800BD4690BD00000020632D3E0500000450BC
:1015980000010450000204500003045007C0F0FF8B
:1015A80080B586B000AF78605748FFF7DDFD386139
:1015B8007B681B681846FFF77CFE0346002B40F04B
:1015C8009C807B6893F85030012B01D1022397E06F
:1015D8007B68012283F85020786800F073FD034689
:1015E800FB75FB7D002B40F083807B685B6D23F4EB
:1015F800706323F0010343F480727B685A657B684B
:101608001B68424A934202D07B681B6800E0404B4B
:101618007A681268934202D03B69002B05D17B6837
:101628005B6D23F480127B685A657B685B6D03F4FD
:101638008053B3F5805F06D17B689B6D23F006026B
:101648007B689A6502E07B6800229A657B681B6864
:101658001C221A607B68002283F850207B681B6874
:101668002A4A934202D07B681B6800E0284B7A68BC
:101678001268934208D03B69002B05D03B69052BC3
:1016880002D03B69092B14D17B681B68DB6803F027
:101698000073002B07D07B685B6D23F4405343F441
:1016A80080527B685A657B681B681846FFF7EDFD1A
:1016B80025E07B685B6D43F480127B685A657B6824
:1016C8001B68124A934202D07B681B6800E0104BEB
:1016D800FB60FB68DB6803F00073002B0FD07B68AE
:1016E8005B6D23F4405343F480527B685A6506E0EF
:1016F8007B68002283F8502001E00223FB75FB7D04
:1017080018461837BD4680BD000304500001045038
:101718000000045080B588B000AF78603960664832
:10172800FFF722FD78617B685B69082B02D10823EB
:10173800FB612AE07B69002B05D07B69052B02D071
:101748007B69092B11D17B681B68DB6803F00103F7
:10175800002B07D07B685B6D43F020027B685A65DD
:101768000123A4E00423FB610FE05348FFF70AFDBF
:101778000346002B07D07B685B6D43F020027B6833
:101788005A65012393E00423FB6102F0ADFE386142
:1017980021E03B68B3F1FF3F1DD002F0A5FE0246F1
:1017A8003B69D31A3A689A4202D33B68002B12D19C
:1017B8007B681B681A68FB691340002B0BD17B6898
:1017C8005B6D43F004027B685A657B68002283F8EE
:1017D800502003236BE07B681B681A68FB69134081
:1017E800002BD6D07B685B6D43F400727B685A652A
:1017F8007B681B681846FFF728FC0346002B1CD0A3
:101808007B685B7E002B18D17B681B681B6803F024
:101818000803082B11D17B685B6D23F480727B6809
:101828005A657B685B6D03F48053002B05D17B6898
:101838005B6D43F001027B685A657B681B681F4A31
:10184800934202D07B681B6800E01D4B7A681268DF
:10185800934208D07B69002B05D07B69052B02D009
:101868007B69092B04D17B681B68DB68BB610CE0D2
:101878007B681B68114A934202D07B681B6800E0B2
:101888000F4BFB60FB68DB68BB61FB69082B04D16D
:101898007B681B6808221A6008E0BB6903F4804370
:1018A800002B03D17B681B680C221A6000231846A2
:1018B8002037BD4680BD00BF00030450000104501E
:1018C8000000045080B483B000AF78607B681B6868
:1018D8001B6C18460C37BD465DF8047B704700004A
:1018E80080B5B6B000AF78603960002387F8D7308C
:1018F8000023BB607B6893F85030012B01D1022391
:10190800C9E37B68012283F850207B681B6818466E
:10191800FFF7CFFC0346002B40F0AA833B685B68C7
:10192800C7F8D0303B685B68052B24D83B685B68F8
:10193800023B032B1BD801A252F823F055190008CB
:101948005D190008651900086D1900080C23C7F80F
:10195800D03010E01223C7F8D0300CE01823C7F8B5
:10196800D03008E04FF48073C7F8D03003E0062386
:10197800C7F8D03000BF7B6818683B681B681A46F8
:10198800D7F8D010FFF774FB7B681B681846FFF781
:1019980090FCC7F8CC007B681B681846FFF79CFCD6
:1019A800C7F8C800D7F8CC30002B40F0A481D7F88E
:1019B800C830002B40F09F817B6818683B68196825
:1019C8003B689B681A46FFF77FFB3B685A697B6850
:1019D8001B68DB68DB0803F003035B0002FA03F310
:1019E800C7F8C4303B681B69042B0AD07B681868A9
:1019F8003B6819693B681A68D7F8C430FFF7D0FA12
:101A080079E17B681B6800211846FFF7EDFA034669
:101A1800C3F31203002B0AD17B681B680021184608
:101A2800FFF7E2FA03469B0E03F01F021EE07B68F5
:101A38001B6800211846FFF7D7FA0346C7F8B830E5
:101A4800D7F8B83093FAA3F3C7F8B430D7F8B4305E
:101A5800C7F8BC30D7F8BC30002B01D1202304E0F4
:101A6800D7F8BC30B3FA83F3DBB21A463B681B687D
:101A7800C3F31203002B05D13B681B689B0E03F0D0
:101A88001F0318E03B681B68C7F8AC30D7F8AC30C8
:101A980093FAA3F3C7F8A830D7F8A830C7F8B0303E
:101AA800D7F8B030002B01D1202304E0D7F8B030AC
:101AB800B3FA83F3DBB29A4206D17B681B68002233
:101AC80000211846FFF7A6FA7B681B680121184613
:101AD800FFF78AFA0346C3F31203002B0AD17B6887
:101AE8001B6801211846FFF77FFA03469B0E03F097
:101AF8001F021EE07B681B6801211846FFF774FA75
:101B08000346C7F8A030D7F8A03093FAA3F3C7F874
:101B18009C30D7F89C30C7F8A430D7F8A430002BF5
:101B280001D1202304E0D7F8A430B3FA83F3DBB261
:101B38001A463B681B68C3F31203002B05D13B68A8
:101B48001B689B0E03F01F0318E03B681B68C7F86F
:101B58009430D7F8943093FAA3F3C7F89030D7F8B5
:101B68009030C7F89830D7F89830002B01D120234F
:101B780004E0D7F89830B3FA83F3DBB29A4206D17F
:101B88007B681B68002201211846FFF743FA7B682F
:101B98001B6802211846FFF727FA0346C3F312030E
:101BA800002B0AD17B681B6802211846FFF71CFA34
:101BB80003469B0E03F01F021EE07B681B68022190
:101BC8001846FFF711FA0346C7F88830D7F8883067
:101BD80093FAA3F3C7F88430D7F88430C7F88C3069
:101BE800D7F88C30002B01D1202304E0D7F88C30B3
:101BF800B3FA83F3DBB21A463B681B68C3F31203DC
:101C0800002B05D13B681B689B0E03F01F0314E0F3
:101C18003B681B68FB67FB6F93FAA3F3BB67BB6F5B
:101C2800C7F88030D7F88030002B01D1202304E09A
:101C3800D7F88030B3FA83F3DBB29A4206D17B68D7
:101C48001B68002202211846FFF7E4F97B681B682D
:101C580003211846FFF7C8F90346C3F31203002B04
:101C68000AD17B681B6803211846FFF7BDF90346B4
:101C78009B0E03F01F0217E07B681B6803211846C0
:101C8800FFF7B2F903463B673B6F93FAA3F3FB6692
:101C9800FB6E7B677B6F002B01D1202303E07B6FFA
:101CA800B3FA83F3DBB21A463B681B68C3F312032B
:101CB800002B05D13B681B689B0E03F01F0311E046
:101CC8003B681B687B667B6E93FAA3F33B663B6EAF
:101CD800BB66BB6E002B01D1202303E0BB6EB3FAB9
:101CE80083F3DBB29A4206D17B681B68002203218A
:101CF8001846FFF78FF97B681B681846FFF7B2FA9A
:101D08000346002B40F040817B6818683B681968DF
:101D18003B68DB681A46FFF703FA3B68DB688F4AC3
:101D2800934240F031817B6818683B681B68C3F3B5
:101D38001203002B0BD13B681B689B0E013303F089
:101D48001F03092B94BF01230023DBB219E03B6872
:101D58001B68BB65BB6D93FAA3F37B657B6DFB6565
:101D6800FB6D002B01D1202303E0FB6DB3FA83F355
:101D7800DBB2013303F01F03092B94BF01230023B7
:101D8800DBB2002B79D03B681B68C3F31203002B2E
:101D980007D13B681B689B0E01339B0603F0F84292
:101DA80015E03B681B68FB64FB6C93FAA3F3BB6408
:101DB800BB6C3B653B6D002B01D1202303E03B6DE1
:101DC800B3FA83F3DBB201339B0603F0F8423B68B6
:101DD8001B68C3F31203002B09D13B681B689B0ED9
:101DE800013303F01F03012101FA03F317E03B68F5
:101DF8001B683B643B6C93FAA3F3FB63FB6B7B644C
:101E08007B6C002B01D1202303E07B6CB3FA83F3B6
:101E1800DBB2013303F01F03012101FA03F342EAA5
:101E280003013B681B68C3F31203002B0AD13B680C
:101E38001B689B0E013303F01F0213465B0013441B
:101E48001B0518E03B681B687B637B6B93FAA3F365
:101E58003B633B6BBB63BB6B002B01D1202303E0CF
:101E6800BB6BB3FA83F3DBB2013303F01F021346F3
:101E78005B0013441B050B4381E03B681B68C3F3FD
:101E88001203002B07D13B681B689B0E01339B068E
:101E980003F0F84215E03B681B68BB62BB6A93FA23
:101EA800A3F37B627B6AFB62FB6A002B01D12023D0
:101EB80003E0FB6AB3FA83F3DBB201339B0603F05A
:101EC800F8423B681B68C3F31203002B09D13B6837
:101ED8001B689B0E013303F01F03012101FA03F372
:101EE80017E03B681B68FB61FB6993FAA3F3BB61CE
:101EF800BB693B623B6A002B01D1202303E03B6AAC
:101F0800B3FA83F3DBB2013303F01F03012101FAB3
:101F180003F342EA03013B681B68C3F31203002B77
:101F28000DD13B681B689B0E013303F01F0213465B
:101F38005B0013441E3B1B0543F000731EE03B6827
:101F48001B683B613B6993FAA3F3FB60FB687B6109
:101F58007B69002B04D1202306E000BF00007F40EE
:101F68007B69B3FA83F3DBB2013303F01F02134634
:101F78005B0013441E3B1B0543F000730B433A6898
:101F880092681946FFF7A0F83B681A68444B13405B
:101F9800002B7AD04348FEF7F5FFC7F8C0003B682E
:101FA8001B68414A93422CD1D7F8C03003F4000390
:101FB800002B26D17B681B683C4A934204D07B687F
:101FC8001B683B4A93425DD1D7F8C03043F4000305
:101FD80019463448FEF7C3FF364B1B689B09364A3F
:101FE800A2FB03239B095A1C13465B0013449B0066
:101FF800BB6002E0BB68013BBB60BB68002BF9D14A
:1020080040E03B681B682D4A934218D1D7F8C0308E
:1020180003F08073002B12D17B681B68234A93421C
:1020280004D07B681B68224A93422DD1D7F8C03070
:1020380043F0807319461B48FEF791FF24E03B6884
:102048001B681F4A934220D1D7F8C03003F480039D
:10205800002B1AD17B681B68144A934215D1D7F814
:10206800C03043F4800319460E48FEF778FF0CE0B1
:102078007B685B6D43F020027B685A65012387F813
:10208800D73002E000BF00E000BF7B68002283F881
:10209800502097F8D7301846D837BD4680BD00BFC6
:1020A8000000088000030450000052C700000450DC
:1020B8000002045000000020632D3E05000084CB80
:1020C8000100008080B584B000AF78600023BB6059
:1020D8007B681B681846FFF7C5F80346002B69D1D3
:1020E8007B681B689A68364B1340002B0DD07B68C1
:1020F8005B6D43F010027B685A657B689B6D43F00B
:1021080001027B689A65012355E07B681B681846C5
:10211800FFF794F82B48FEF735FF034603F4000356
:10212800002B13D0284B1B689B09284AA2FB0323CA
:102138009B095A1C13465B0013449B00BB6002E0DA
:10214800BB68013BBB60BB68002BF9D102F0CCF93E
:10215800F86028E07B681B681846FFF783F8034699
:10216800002B04D17B681B681846FFF767F802F05C
:10217800BBF90246FB68D31A022B14D97B681B688B
:102188001B6803F00103012B0DD07B685B6D43F0E6
:1021980010027B685A657B689B6D43F001027B687F
:1021A8009A65012307E07B681B681B6803F001033D
:1021B800012BCFD1002318461037BD4680BD00BF84
:1021C8003F0000800003045000000020632D3E05FE
:1021D80080B485B000AF78607B6803F00703FB60CC
:1021E8000C4BDB68BB60BA684FF6FF031340BB605B
:1021F800FB681A02BB68134343F0BF6343F4003320
:10220800BB60044ABB68D36000BF1437BD465DF8A5
:10221800047B704700ED00E080B400AF044BDB683E
:102228001B0A03F007031846BD465DF8047B704798
:1022380000ED00E080B483B000AF03463960FB7165
:1022480097F90730002B0ADB3B68DAB20C4997F99B
:1022580007301201D2B20B4483F800230AE03B682E
:10226800DAB20849FB7903F00F03043B1201D2B23A
:102278000B441A7600BF0C37BD465DF8047B7047E7
:1022880000E100E000ED00E080B489B000AFF86044
:10229800B9607A60FB6803F00703FB61FB69C3F16F
:1022A8000703042B28BF0423BB61FB690433062BF7
:1022B80002D9FB69033B00E000237B614FF0FF324A
:1022C800BB6902FA03F3DA43BB681A407B699A4098
:1022D8004FF0FF317B6901FA03F3D9437B680B4068
:1022E800134318462437BD465DF8047B7047000049
:1022F80080B582B000AF78607B68013BB3F1807F26
:1023080001D301230FE00A4A7B68013B53600F2188
:102318004FF0FF30FFF78EFF054B00229A60044B09
:1023280007221A60002318460837BD4680BD00BF43
:1023380010E000E080B582B000AF78607868FFF701
:1023480047FF00BF0837BD4680BD80B586B000AFE7
:102358000346B9607A60FB7300237B61FFF75CFF7B
:1023680078617A68B9687869FFF78EFF024697F94D
:102378000F3011461846FFF75DFF00BF1837BD46FE
:1023880080BD80B582B000AF78607868FFF7B0FF95
:10239800034618460837BD4680BD000080B487B0A4
:1023A80000AF7860396000237B617FE13B681A6881
:1023B80001217B6901FA03F31340FB60FB68002BE2
:1023C80000F071813B685B6803F00303012B05D0C3
:1023D8003B685B6803F00303022B30D17B689B6882
:1023E8003B617B695B00032202FA03F3DB433A6932
:1023F80013403B613B68DA687B695B0002FA03F3D0
:102408003A6913433B617B683A699A607B685B6809
:102418003B6101227B6902FA03F3DB433A6913400B
:102428003B613B685B681B0903F001027B6902FAA8
:1024380003F33A6913433B617B683A695A603B6826
:102448005B6803F00303032B18D17B68DB6A3B61ED
:1024580001227B6902FA03F3DB433A6913403B61CB
:102468003B685B68DB0803F001027B6902FA03F34F
:102478003A6913433B617B683A69DA623B685B6897
:1024880003F00303032B17D07B68DB683B617B6990
:102498005B00032202FA03F3DB433A6913403B6112
:1024A8003B689A687B695B0002FA03F33A69134355
:1024B8003B617B683A69DA603B685B6803F0030359
:1024C800022B23D17B69DA087B68083253F8223063
:1024D8003B617B6903F007039B000F2202FA03F3B9
:1024E800DB433A6913403B613B681A697B6903F037
:1024F80007039B0002FA03F33A6913433B617B69C4
:10250800DA087B680832396943F822107B681B684F
:102518003B617B695B00032202FA03F3DB433A6900
:1025280013403B613B685B6803F003027B695B0017
:1025380002FA03F33A6913433B617B683A691A600C
:102548003B685B6803F44033002B00F0AC805F4BC2
:102558001B6E5E4A43F0010313665C4B1B6E03F06F
:102568000103BB60BB685A4A7B699B08023352F877
:1025780023303B617B6903F003039B000F2202FABF
:1025880003F3DB433A6913403B617B68B3F1904F37
:1025980025D07B684F4A93421FD07B684E4A9342AE
:1025A80019D07B684D4A934213D07B684C4A9342BA
:1025B8000DD07B684B4A934207D07B684A4A9342C6
:1025C80001D106230CE007230AE0052308E00423D1
:1025D80006E0032304E0022302E0012300E00023D5
:1025E8007A6902F00302920093403A6913433B610F
:1025F80037497B699B0802333A6941F823203B4BF2
:102608009B683B61FB68DB433A6913403B613B686D
:102618005B6803F48013002B03D03A69FB6813430B
:102628003B61324A3B699360304BDB683B61FB6836
:10263800DB433A6913403B613B685B6803F4001372
:10264800002B03D03A69FB6813433B61274A3B6977
:10265800D360264B5B683B61FB68DB433A691340F8
:102668003B613B685B6803F40033002B03D03A6995
:10267800FB6813433B611D4A3B6953601B4B1B6856
:102688003B61FB68DB433A6913403B613B685B682D
:1026980003F48033002B03D03A69FB6813433B6192
:1026A800124A3B6913607B6901337B613B681A6896
:1026B8007B6922FA03F3002B7FF478AE00BF00BFDA
:1026C8001C37BD465DF8047B704700BF0010024010
:1026D800000001400004004800080048000C0048C1
:1026E8000010004800140048001800480004014089
:1026F80080B485B000AF78600B467B807B681A6930
:102708007B881340002B02D00123FB7301E00023D8
:10271800FB73FB7B18461437BD465DF8047B704796
:1027280080B483B000AF78600B467B8013467B7023
:102738007B78002B03D07A887B689A6102E07A88DC
:102748007B689A6200BF0C37BD465DF8047B704712
:1027580080B400AF044B1B6803F4C0631846BD4641
:102768005DF8047B704700BF0070004080B485B0FE
:1027780000AF78607B68B3F5007F30D1234B1B68CE
:1027880003F4C063B3F5007F38D0204B1B6823F4F3
:10279800C0631E4A43F4007313601D4B1B6832224A
:1027A80002FB03F31B4AA2FB03239B0C0133FB60D0
:1027B80002E0FB68013BFB60144B5B6903F4806338
:1027C800B3F5806F02D1FB68002BF2D10F4B5B6928
:1027D80003F48063B3F5806F10D103230FE00B4B34
:1027E8001B6803F4C063B3F5806F07D0074B1B6801
:1027F80023F4C063054A43F480631360002318463A
:102808001437BD465DF8047B704700BF0070004078
:102818000000002083DE1B4380B586B000AF7860DF
:102828000023FB740023BB747B681B6803F40063FC
:10283800002B41D07B685B6EB3F5400F2AD0B3F50F
:10284800400F24D8B3F5000F08D0B3F5000F1ED8F9
:10285800002B0AD0B3F5800F10D018E0864BDB6848
:10286800854A43F48033D36015E07B680433002144
:10287800184600F0BBFA0346FB740CE07B68203373
:102888000021184600F0A6FB0346FB7403E0012371
:10289800FB7400E000BFFB7C002B0BD1764BD3F818
:1028A800883023F440027B685B6E73491343C1F898
:1028B800883001E0FB7CBB747B681B6803F48053A1
:1028C800002B41D07B689B6EB3F1407F2AD0B3F1D7
:1028D800407F24D8B3F1007F08D0B3F1007F1ED821
:1028E800002B0AD0B3F1807F10D018E0624BDB6870
:1028F800614A43F48033D36015E07B6804330021D8
:10290800184600F073FA0346FB740CE07B6820332A
:102918000021184600F05EFB0346FB7403E0012328
:10292800FB7400E000BFFB7C002B0BD1524BD3F8AB
:10293800883023F040727B689B6E4F491343C1F87F
:10294800883001E0FB7CBB747B681B6803F40033B0
:10295800002B00F0A08000237B74474B9B6D03F095
:102968008053002B01D1012300E00023002B0DD060
:10297800414B9B6D404A43F0805393653E4B9B6DA2
:1029880003F08053BB60BB6801237B743B4B1B681F
:102998003A4A43F48073136001F0A6FDF86009E039
:1029A80001F0A2FD0246FB68D31A022B02D90323C9
:1029B800FB7405E0314B1B6803F48073002BEFD0E8
:1029C800FB7C002B5CD12C4BD3F8903003F4407384
:1029D8007B617B69002B1FD07B68D3F884307A69D0
:1029E8009A4219D0244BD3F8903023F440737B617A
:1029F800214BD3F89030204A43F48033C2F890300A
:102A08001D4BD3F890301C4A23F48033C2F8903021
:102A1800194A7B69C2F890307B6903F00103002BE7
:102A280016D001F061FDF8600BE001F05DFD024693
:102A3800FB68D31A41F28832934202D90323FB740C
:102A480006E00D4BD3F8903003F00203002BECD0D6
:102A5800FB7C002B0CD1084BD3F8903023F4407248
:102A68007B68D3F8843004491343C1F8903009E0F7
:102A7800FB7CBB7406E000BF001002400070004001
:102A8800FB7CBB747B7C012B05D19E4B9B6D9D4AC7
:102A980023F0805393657B681B6803F00103002BC8
:102AA8000AD0984BD3F8883023F003027B689B6BDD
:102AB80094491343C1F888307B681B6803F002030C
:102AC800002B0AD08F4BD3F8883023F00C027B6898
:102AD800DB6B8C491343C1F888307B681B6803F0B3
:102AE8000403002B0AD0874BD3F8883023F0300238
:102AF8007B681B6C83491343C1F888307B681B686B
:102B080003F00803002B0AD07E4BD3F8883023F05B
:102B1800C0027B685B6C7B491343C1F888307B68D3
:102B28001B6803F01003002B0AD0764BD3F88830CB
:102B380023F440727B689B6C72491343C1F8883058
:102B48007B681B6803F02003002B0AD06D4BD3F879
:102B5800883023F440627B68DB6C6A491343C1F810
:102B680088307B681B6803F40073002B0AD0654B20
:102B7800D3F8883023F440227B68DB6D6149134326
:102B8800C1F888307B681B6803F48063002B0AD087
:102B98005C4BD3F8883023F440127B681B6E59498C
:102BA8001343C1F888307B681B6803F04003002B8F
:102BB8000AD0544BD3F8883023F440527B681B6DFD
:102BC80050491343C1F888307B681B6803F08003C1
:102BD800002B0AD04B4BD3F8883023F440427B6853
:102BE8005B6D48491343C1F888307B681B6803F460
:102BF8008073002B0AD0434BD3F8883023F440323B
:102C08007B689B6D3F491343C1F888307B681B681C
:102C180003F40053002B28D03A4BD3F8883023F024
:102C280040627B68DB6E37491343C1F888307B68A4
:102C3800DB6EB3F1006F06D1324BDB68314A43F4E7
:102C48008013D36011E07B68DB6EB3F1806F0CD129
:102C58007B6804330121184600F0C8F80346FB746A
:102C6800FB7C002B01D0FB7CBB747B681B6803F4E6
:102C78000023002B28D0234BD3F8883023F0406260
:102C88007B681B6F1F491343C1F888307B681B6F33
:102C9800B3F1006F06D11B4BDB681A4A43F480136B
:102CA800D36011E07B681B6FB3F1806F0CD17B6838
:102CB80004330121184600F099F80346FB74FB7CA5
:102CC800002B01D0FB7CBB747B681B6803F480235A
:102CD800002B2BD00B4BD3F8883023F040627B6855
:102CE8005B6F08491343C1F888307B685B6FB3F1A9
:102CF800006F09D1034BDB68024A43F48013D360A9
:102D080014E000BF001002407B685B6FB3F1806F76
:102D18000CD17B6804330121184600F067F803469C
:102D2800FB74FB7C002B01D0FB7CBB747B681B68AD
:102D380003F48043002B2FD02B4BD3F8883023F09B
:102D480040527B689B6F28491343C1F888307B68E1
:102D58009B6FB3F1805F0DD17B6804330221184665
:102D680000F044F80346FB74FB7C002B14D0FB7C7A
:102D7800BB7411E07B689B6FB3F1005F0CD17B687B
:102D880020330221184600F025F90346FB74FB7C2A
:102D9800002B01D0FB7CBB747B681B6803F40043E9
:102DA800002B0AD0104BD3F8883023F080427B6880
:102DB800DB6F0D491343C1F888307B681B6803F447
:102DC8008033002B0BD0084BD3F8883023F0004217
:102DD8007B68D3F8803004491343C1F88830BB7C42
:102DE80018461837BD4680BD0010024080B584B033
:102DF80000AF786039600023FB73754BDB6803F024
:102E08000303002B18D0724BDB6803F003027B68C6
:102E18001B689A420DD17B681B68002B09D06C4B4C
:102E2800DB681B0903F007035A1C7B685B689A423E
:102E380047D00123FB7344E07B681B68032B18D041
:102E4800032B25D8012B02D0022B09D020E0604BA0
:102E58001B6803F00203002B1DD10123FB731AE04A
:102E68005B4B1B6803F48063002B16D10123FB73B3
:102E780013E0574B1B6803F40033002B0FD1544B5E
:102E88001B6803F48023002B09D10123FB7306E0A0
:102E98000123FB7304E000BF02E000BF00E000BFB5
:102EA800FB7B002B0DD14A4BDB6823F073027B6858
:102EB80019687B685B68013B1B010B43444913435A
:102EC800CB60FB7B002B7DD1414B1B68404A23F034
:102ED8008063136001F008FBB86009E001F004FBAF
:102EE8000246BB68D31A022B02D90323FB7305E001
:102EF800374B1B6803F00063002BEFD1FB7B002BE3
:102F080060D13B68002B11D1314B1B6923F41F336F
:102F180023F440737A68926811027A68D2681209B9
:102F280052040A432A4913430B6127E03B68012BEB
:102F380012D1274B1B6923F4C00323F4FE437A689C
:102F4800926811027A6812695208013A52050A43D6
:102F58001F4913430B6111E01D4B1B6923F0C0632C
:102F680023F4FE437A68926811027A68526952081B
:102F7800013A52060A43164913430B61144B1B6866
:102F8800134A43F08063136001F0AEFAB86009E0B9
:102F980001F0AAFA0246BB68D31A022B02D903230E
:102FA800FB7305E00A4B1B6803F00063002BEFD0AE
:102FB800FB7B002B06D1064B1A697B689B69044989
:102FC80013430B61FB7B18461037BD4680BD00BF1D
:102FD8000010024080B584B000AF786039600023EB
:102FE800FB736A4BDB6803F00303002B18D0674BB5
:102FF800DB6803F003027B681B689A420DD17B688B
:103008001B68002B09D0614BDB681B0903F0070321
:103018005A1C7B685B689A4247D00123FB7344E0E3
:103028007B681B68032B18D0032B25D8012B02D0F3
:10303800022B09D020E0554B1B6803F00203002B3C
:103048001DD10123FB731AE0504B1B6803F4806306
:10305800002B16D10123FB7313E04C4B1B6803F4C0
:103068000033002B0FD1494B1B6803F48023002B3E
:1030780009D10123FB7306E00123FB7304E000BFC1
:1030880002E000BF00E000BFFB7B002B0DD13F4BEF
:10309800DB6823F073027B6819687B685B68013B17
:1030A8001B010B4339491343CB60FB7B002B67D1D2
:1030B800364B1B68354A23F08053136001F014FA2D
:1030C800B86009E001F010FA0246BB68D31A022B77
:1030D80002D90323FB7305E02C4B1B6803F0005354
:1030E800002BEFD1FB7B002B4AD13B68002B11D181
:1030F800264B5B6923F41F3323F440737A68926884
:1031080011027A68D268120952040A431F4913430C
:103118004B6111E01D4B5B6923F0C06323F4FE4350
:103128007A68926811027A6812695208013A52065E
:103138000A43164913434B61144B1B68134A43F067
:103148008053136001F0D0F9B86009E001F0CCF9C0
:103158000246BB68D31A022B02D90323FB7305E08E
:103168000A4B1B6803F00053002BEFD0FB7B002BAE
:1031780006D1064B5A697B685B69044913434B6166
:10318800FB7B18461037BD4680BD00BF00100240CB
:1031980080B588B000AF78607B68002B01D101232F
:1031A800CAE3974B9B6803F00C03BB61944BDB6845
:1031B80003F003037B617B681B6803F01003002B9B
:1031C80000F0E480BB69002B07D0BB690C2B40F0F2
:1031D8008B807B69012B40F08780894B1B6803F04B
:1031E8000203002B05D07B689B69002B01D10123CA
:1031F800A2E37B681A6A824B1B6803F00803002B62
:1032080004D07F4B1B6803F0F00305E07C4BD3F838
:1032180094301B0903F0F003934223D27B681B6AA6
:10322800184600F01DFD0346002B01D0012383E35F
:10323800734B1B68724A43F008031360704B1B689A
:1032480023F0F0027B681B6A6D4913430B606C4BDB
:103258005B6823F47F427B68DB691B026849134380
:103268004B6025E0664B1B68654A43F00803136012
:10327800634B1B6823F0F0027B681B6A60491343A9
:103288000B605F4B5B6823F47F427B68DB691B0242
:103298005B4913434B60BB69002B09D17B681B6AF0
:1032A800184600F0DDFC0346002B01D0012343E360
:1032B80000F04AFC0246524B9B681B0903F00F03BF
:1032C8005049CB5C03F01F0322FA03F34E4A136004
:1032D8004E4B1B68184601F0B7F80346FB73FB7B9F
:1032E800002B52D0FB7B27E37B689B69002B32D0F5
:1032F800434B1B68424A43F00103136001F0F4F8A2
:10330800386108E001F0F0F802463B69D31A022B55
:1033180001D9032310E33A4B1B6803F00203002B87
:10332800F0D0374B1B68364A43F008031360344B20
:103338001B6823F0F0027B681B6A314913430B605A
:103348002F4B5B6823F47F427B68DB691B022C49A7
:1033580013434B601AE02A4B1B68294A23F00103E8
:10336800136001F0C1F8386108E001F0BDF80246C9
:103378003B69D31A022B01D90323DDE2204B1B68DA
:1033880003F00203002BF0D100E000BF7B681B684C
:1033980003F00103002B74D0BB69082B05D0BB696F
:1033A8000C2B0ED17B69032B0BD1154B1B6803F437
:1033B8000033002B64D07B685B68002B60D101234D
:1033C800BAE27B685B68B3F5803F06D10C4B1B689B
:1033D8000B4A43F48033136026E07B685B68B3F5DF
:1033E800A02F15D1064B1B68054A43F480231360B0
:1033F800034B1B68024A43F48033136014E000BF98
:1034080000100240C0450008000000200400002011
:10341800A04B1B689F4A23F4803313609D4B1B68A5
:103428009C4A23F4802313607B685B68002B13D0CD
:1034380001F05AF8386108E001F056F802463B6995
:10344800D31A642B01D9032376E2924B1B6803F449
:103458000033002BF0D014E001F046F8386108E0A2
:1034680001F042F802463B69D31A642B01D90323C1
:1034780062E2884B1B6803F40033002BF0D100E0B4
:1034880000BF7B681B6803F00203002B60D0BB6998
:10349800042B05D0BB690C2B19D17B69022B16D1E3
:1034A8007C4B1B6803F48063002B05D07B68DB68CA
:1034B800002B01D101233FE2764B5B6823F0F852E1
:1034C8007B681B691B06734913434B6040E07B68AC
:1034D800DB68002B23D06F4B1B686E4A43F4807364
:1034E800136001F001F8386108E000F0FDFF0246C2
:1034F8003B69D31A022B01D903231DE2654B1B68D4
:1035080003F48063002BF0D0624B5B6823F0F85221
:103518007B681B691B065F4913434B6018E05D4BD2
:103528001B685C4A23F48073136000F0DDFF386188
:1035380008E000F0D9FF02463B69D31A022B01D9F3
:103548000323F9E1534B1B6803F48063002BF0D18C
:103558007B681B6803F00803002B3CD07B685B6921
:10356800002B1CD04B4BD3F894304A4A43F001034C
:10357800C2F8943000F0B8FF386108E000F0B4FFFA
:1035880002463B69D31A022B01D90323D4E1414BEC
:10359800D3F8943003F00203002BEFD01BE03D4B2F
:1035A800D3F894303B4A23F00103C2F8943000F07A
:1035B8009BFF386108E000F097FF02463B69D31A89
:1035C800022B01D90323B7E1324BD3F8943003F02F
:1035D8000203002BEFD17B681B6803F00403002B68
:1035E80000F0A6800023FB772A4B9B6D03F08053E5
:1035F800002B0DD1274B9B6D264A43F080539365D2
:10360800244B9B6D03F08053BB60BB680123FB77A1
:10361800214B1B6803F48073002B18D11E4B1B68C9
:103628001D4A43F48073136000F05EFF386108E0C0
:1036380000F05AFF02463B69D31A022B01D9032333
:103648007AE1154B1B6803F48073002BF0D07B687C
:103658009B68012B08D10F4BD3F890300D4A43F0EB
:103668000103C2F8903029E07B689B68052B15D1CF
:10367800084BD3F89030074A43F00403C2F890305F
:10368800044BD3F89030034A43F00103C2F890305A
:1036980014E000BF00100240007000409C4BD3F8BB
:1036A80090309B4A23F00103C2F89030984BD3F82E
:1036B8009030974A23F00403C2F890307B689B68E7
:1036C800002B16D000F010FF38610AE000F00CFF64
:1036D80002463B69D31A41F28832934201D9032347
:1036E8002AE18B4BD3F8903003F00203002BEDD086
:1036F80015E000F0F9FE38610AE000F0F5FE024638
:103708003B69D31A41F28832934201D9032313E16A
:103718007F4BD3F8903003F00203002BEDD1FB7FF1
:10372800012B05D17A4B9B6D794A23F08053936521
:103738007B689B6A002B00F0FE807B689B6A022BEB
:1037480040F0D080724BDB687B617B6903F0030239
:103758007B68DB6A9A4230D17B6903F070027B6830
:103768001B6B013B1B019A4227D17B6903F4FE4284
:103778007B685B6B1B029A421FD17B6903F40033A1
:103788007A68926B072A14BF01220022D2B29342B0
:1037980013D17B6903F4C0027B68DB6B5B08013BD8
:1037A8005B059A4209D17B6903F0C0627B681B6C98
:1037B8005B08013B5B069A426ED0BB690C2B69D053
:1037C800534B1B6803F08063002B05D1504B1B68DB
:1037D80003F08053002B01D00123ADE04C4B1B6854
:1037E8004B4A23F08073136000F07EFE386108E0D6
:1037F80000F07AFE02463B69D31A022B01D9032353
:103808009AE0434B1B6803F00073002BF0D1404B48
:10381800DA68404B13407A68D16A7A68126B013AC9
:10382800120111437A68526B120211437A68D26B03
:103838005208013A520511437A68126C5208013A4B
:10384800520611437A68926B120952040A433049AE
:103858001343CB602E4B1B682D4A43F080731360D3
:103868002B4BDB682A4A43F08073D36000F03CFEA0
:10387800386108E000F038FE02463B69D31A022B93
:1038880001D9032358E0224B1B6803F00073002B77
:10389800F0D050E001234FE01D4B1B6803F000738C
:1038A800002B48D11A4B1B68194A43F080731360E8
:1038B800174BDB68164A43F08073D36000F014FEA0
:1038C800386108E000F010FE02463B69D31A022B6B
:1038D80001D9032330E00E4B1B6803F00073002B63
:1038E800F0D028E0BB690C2B23D0094B1B68084A91
:1038F80023F08073136000F0F7FD38610CE000F0EE
:10390800F3FD02463B69D31A022B05D9032313E0C2
:10391800001002408C809DF9094B1B6803F000736E
:10392800002BECD1064BDA680549064B1340CB60F7
:1039380001E0012300E0002318462037BD4680BD82
:1039480000100240FCFFEEFE80B584B000AF786046
:1039580039607B68002B01D10123E7E0754B1B68B8
:1039680003F007033A689A4210D9724B1B6823F098
:10397800070270493B6813430B606E4B1B6803F0EA
:1039880007033A689A4201D00123CFE07B681B689D
:1039980003F00203002B10D07B689A68664B9B6883
:1039A80003F0F0039A4208D9634B9B6823F0F002B6
:1039B8007B689B68604913438B607B681B6803F0D6
:1039C8000103002B4CD07B685B68032B07D15A4B53
:1039D8001B6803F00073002B21D10123A6E07B684C
:1039E8005B68022B07D1544B1B6803F40033002B90
:1039F80015D101239AE07B685B68002B07D14E4BF9
:103A08001B6803F00203002B09D101238EE04A4B07
:103A18001B6803F48063002B01D1012386E0464B29
:103A28009B6823F003027B685B68434913438B6000
:103A380000F05AFDF8600AE000F056FD0246FB6807
:103A4800D31A41F28832934201D903236EE03A4BEC
:103A58009B6803F00C027B685B689B009A42EBD181
:103A68007B681B6803F00203002B10D07B689A6800
:103A7800314B9B6803F0F0039A4208D22E4B9B68A7
:103A880023F0F0027B689B682B4913438B60294B1A
:103A98001B6803F007033A689A4210D2254B1B684B
:103AA80023F0070223493B6813430B60214B1B6833
:103AB80003F007033A689A4201D0012336E07B6895
:103AC8001B6803F00403002B08D01B4B9B6823F4EE
:103AD800E0627B68DB68184913438B607B681B686E
:103AE80003F00803002B09D0134B9B6823F46052A2
:103AF8007B681B69DB00104913438B6000F024F8D6
:103B080002460D4B9B681B0903F00F030B49CB5C66
:103B180003F01F0322FA03F3094A1360094B1B68D9
:103B2800184600F091FC0346FB72FB7A18461037E2
:103B3800BD4680BD0020024000100240C04500087C
:103B4800000000200400002080B489B000AF0023EA
:103B5800FB610023BB613E4B9B6803F00C033B6198
:103B68003B4BDB6803F00303FB603B69002B05D08C
:103B78003B690C2B21D1FB68012B1ED1344B1B68F0
:103B880003F00803002B07D1314BD3F894301B0AFC
:103B980003F00F03FB6105E02D4B1B681B0903F0C5
:103BA8000F03FB612B4AFB6952F82330FB613B6929
:103BB800002B0DD1FB69BB610AE03B69042B02D1E4
:103BC800254BBB6104E03B69082B01D1234BBB614A
:103BD8003B690C2B34D11E4BDB6803F00303BB603D
:103BE800BB68022B03D0BB68032B03D005E01A4B3C
:103BF8007B6105E0194B7B6102E0FB697B6100BFDB
:103C0800134BDB681B0903F0070301337B60104B80
:103C1800DB681B0A03F07F037A6903FB02F27B6807
:103C2800B2FBF3F37B610A4BDB685B0E03F0030323
:103C380001335B003B607A693B68B2FBF3F3BB611D
:103C4800BB6918462437BD465DF8047B704700BF42
:103C580000100240D04500080024F40000127A0049
:103C680080B586B000AF786000233B612A4B9B6D1E
:103C780003F08053002B03D0FEF76AFD786114E04F
:103C8800254B9B6D244A43F080539365224B9B6DD3
:103C980003F08053FB60FB68FEF75AFD78611E4B0A
:103CA8009B6D1D4A23F0805393657B69B3F5007FB4
:103CB8000BD17B68802B19D97B68A02B02D90223F2
:103CC8003B6113E001233B6110E07B68802B02D944
:103CD80003233B610AE07B68802B02D102233B610E
:103CE80004E07B68702B01D101233B610B4B1B68FF
:103CF80023F0070209493B6913430B60074B1B6814
:103D080003F007033A699A4201D0012300E0002337
:103D180018461837BD4680BD0010024000200240FA
:103D280080B584B000AF78607B68002B01D1012397
:103D380095E07B685B6A002B08D17B685B68B3F50C
:103D4800827F09D07B680022DA6105E07B68002267
:103D58001A617B6800225A617B6800229A627B683C
:103D680093F85D30DBB2002B06D17B68002283F824
:103D78005C207868FCF742FF7B68022283F85D20AC
:103D88007B681B681A687B681B6822F040021A600F
:103D98007B68DB68B3F5E06F02D90023FB6002E0C3
:103DA8004FF48053FB607B68DB68B3F5706F07D016
:103DB8007B68DB68B3F5E06F02D07B6800229A620B
:103DC8007B685B6803F482727B689B6803F4044336
:103DD8001A437B681B6903F002031A437B685B691B
:103DE80003F001031A437B689B6903F400731A43C9
:103DF8007B68DB6903F038031A437B681B6A03F0AE
:103E0800800342EA03017B689B6A03F400527B68E3
:103E18001B680A431A607B689B691B0C03F0040249
:103E28007B685B6A03F010031A437B685B6B03F0E3
:103E380008031A437B68DB6803F4706342EA0301F2
:103E4800FB6803F480527B681B680A435A607B68EE
:103E580000221A667B68012283F85D200023184639
:103E68001037BD4680BD80B588B000AFF860B96036
:103E78003B601346FB800023FB77FB6893F85C30BC
:103E8800012B01D102235FE1FB68012283F85C204A
:103E980000F02AFBB861FB88FB82FB6893F85D3071
:103EA800DBB2012B02D00223FB7748E1BB68002B71
:103EB80002D0FB88002B02D10123FB773FE1FB688E
:103EC800032283F85D20FB6800221A66FB68BA6843
:103ED8009A63FB68FA889A87FB68FA88DA87FB682E
:103EE80000221A64FB680022A3F84420FB68002221
:103EF800A3F84620FB6800221A65FB680022DA64F2
:103F0800FB689B68B3F5004F0FD1FB681B681A6804
:103F1800FB681B6822F040021A60FB681B681A687D
:103F2800FB681B6842F480421A60FB681B681B68C8
:103F380003F04003402B07D0FB681B681A68FB6836
:103F48001B6842F040021A60FB68DB68B3F5E06F5B
:103F58004FD9FB685B68002B02D0FB8A012B42D14A
:103F6800FB689B6B1A88FB681B68DA60FB689B6BB5
:103F78009A1CFB689A63FB68DB8F9BB2013B9AB281
:103F8800FB68DA872FE0FB681B689B6803F0020375
:103F9800022B12D1FB689B6B1A88FB681B68DA60DE
:103FA800FB689B6B9A1CFB689A63FB68DB8F9BB270
:103FB800013B9AB2FB68DA8715E000F095FA0246F1
:103FC800BB69D31A3A689A4203D83B68B3F1FF3FFA
:103FD80002D13B68002B06D10323FB77FB68012243
:103FE80083F85D20ABE0FB68DB8F9BB2002BCAD166
:103FF80080E0FB685B68002B02D0FB8A012B74D140
:10400800FB68DB8F9BB2012B12D9FB689B6B1A886C
:10401800FB681B68DA60FB689B6B9A1CFB689A63F9
:10402800FB68DB8F9BB2023B9AB2FB68DA875CE0E5
:10403800FB689A6BFB681B680C3312781A70FB6874
:104048009B6B5A1CFB689A63FB68DB8F9BB2013B36
:104058009AB2FB68DA8748E0FB681B689B6803F044
:104068000203022B2BD1FB68DB8F9BB2012B12D9E9
:10407800FB689B6B1A88FB681B68DA60FB689B6BA4
:104088009A1CFB689A63FB68DB8F9BB2023B9AB26F
:10409800FB68DA8729E0FB689A6BFB681B680C33BE
:1040A80012781A70FB689B6B5A1CFB689A63FB6852
:1040B800DB8F9BB2013B9AB2FB68DA8715E000F010
:1040C80013FA0246BB69D31A3A689A4203D83B6886
:1040D800B3F1FF3F02D13B68002B06D10323FB77E6
:1040E800FB68012283F85D2029E0FB68DB8F9BB227
:1040F800002BB1D1BA693968F86800F047F903466E
:10410800002B02D0FB6820221A66FB689B68002BF4
:104118000AD100233B61FB681B68DB683B61FB68D5
:104128001B689B683B613B69FB681B6E002B02D0D8
:104138000123FB7703E0FB68012283F85D20FB681D
:10414800002283F85C20FB7F18462037BD4680BDDF
:1041580080B588B000AFF860B9603B601346FB716A
:1041680000F0C2F90246BB6A9B1A3A681344FB6125
:1041780000F0BAF9B861394B1B685B011B0DFA698D
:1041880002FB03F37B6154E03B68B3F1FF3F50D07F
:1041980000F0AAF90246BB69D31AFA699A4202D911
:1041A800FB69002B3DD1FB681B685A68FB681B68DC
:1041B80022F0E0025A60FB685B68B3F5827F11D198
:1041C800FB689B68B3F5004F04D0FB689B68B3F5A8
:1041D800806F07D1FB681B681A68FB681B6822F0B0
:1041E80040021A60FB689B6AB3F5005F0FD1FB6859
:1041F8001B681A68FB681B6822F400521A60FB6887
:104208001B681A68FB681B6842F400521A60FB6856
:10421800012283F85D20FB68002283F85C200323D9
:1042280017E07B69002B01D10023FB617B69013B0F
:104238007B61FB681B689A68BB681340BA689A423E
:104248000CBF01230023DBB21A46FB799A429BD1AB
:10425800002318462037BD4680BD00BF000000205F
:1042680080B58AB000AFF860B9607A603B6000231F
:10427800FB7500F039F902463B6B9B1A3A68134408
:104288007B6200F031F93862FB681B680C33FB6114
:104298003D4B1A6813469B001344DA00D31A1B0DD2
:1042A8007A6A02FB03F3BB6160E0BB68B3F5C06FD9
:1042B80007D17B68002B04D1FB691B78DBB2FB7547
:1042C800FB7D3B68B3F1FF3F50D000F00DF902468B
:1042D8003B6AD31A7A6A9A4202D97B6A002B3DD18B
:1042E800FB681B685A68FB681B6822F0E0025A608A
:1042F800FB685B68B3F5827F11D1FB689B68B3F5F7
:10430800004F04D0FB689B68B3F5806F07D1FB684A
:104318001B681A68FB681B6822F040021A60FB6879
:104328009B6AB3F5005F0FD1FB681B681A68FB68CE
:104338001B6822F400521A60FB681B681A68FB6845
:104348001B6842F400521A60FB68012283F85D2062
:10435800FB68002283F85C20032310E0BB69002B74
:1043680001D100237B62BB69013BBB61FB681B6811
:104378009A68BB6813407A689A4296D10023184617
:104388002837BD4680BD00BF0000002080B586B03C
:1043980002AFF860B9607A607B680093BB6800225E
:1043A8004FF4C051F868FFF75BFF0346002B07D0B6
:1043B800FB681B6E43F02002FB681A66032327E0A4
:1043C8007B680093BB6800228021F868FFF7C0FE75
:1043D8000346002B07D0FB681B6E43F02002FB68E6
:1043E8001A66032314E07B680093BB6800224FF42D
:1043F800C061F868FFF734FF0346002B07D0FB685D
:104408001B6E43F02002FB681A66032300E00023BA
:1044180018461037BD4680BD80B582B000AF002376
:10442800FB710320FDF786FF0F2000F00DF803460F
:10443800002B02D00123FB7101E0FCF753FBFB7951
:1044480018460837BD4680BD80B584B000AF786097
:104458000023FB73174B1B78002B23D0164B1A68CD
:10446800144B1B7819464FF47A73B3FBF1F3B2FB84
:10447800F3F31846FDF785FF0346002B0FD17B6841
:104488000F2B09D8002279684FF0FF30FDF75DFF48
:104498000A4A7B68136007E00123FB7304E00123E9
:1044A800FB7301E00123FB73FB7B18461037BD4605
:1044B80080BD00BF0800002000000020040000208C
:1044C80080B400AF064B1B781A46064B1B68134492
:1044D800044A136000BFBD465DF8047B704700BF07
:1044E80008000020F000002080B400AF034B1B68D8
:1044F8001846BD465DF8047B704700BFF0000020F9
:1045080080B584B000AF7860FFF7EEFFB8607B68D5
:10451800FB60FB68B3F1FF3F05D00A4B1B781A46D6
:10452800FB681344FB6000BFFFF7DEFF0246BB6871
:10453800D31AFA689A42F7D800BF00BF1037BD46B1
:1045480080BD00BF0800002002440346934200D10A
:10455800704703F8011BF9E770B50D4D0D4C641B4E
:10456800A4100026A64209D10B4D0C4C00F018F8F7
:10457800641BA4100026A64205D170BD55F8043B63
:1045880098470136EEE755F8043B98470136F2E7BD
:1045980000460008004600080046000804460008D7
:1045A800F8B500BFF8BC08BC9E467047F8B500BF18
:0845B800F8BC08BC9E467047E8
:1045C00000000000000000000102030406070809C3
:1045D000A0860100400D0300801A060000350C0083
:1045E00040420F0080841E0000093D0000127A0046
:1045F0000024F40000366E010048E801006CDC0283
:04460000AD01000800
:044604008901000820
:0C46080000093D0010000000010000004F
:0400000508000D41A1
:00000001FF
